{
	"data": {
		"bytecode": {
			"linkReferences": {},
			"object": "60e060405260326080908152601960a052600560c05262000025906000906003620001fd565b503480156200003357600080fd5b50604051620018c8380380620018c8833981016040819052620000569162000269565b600081116200006457600080fd5b600680546001600160a01b0319166001600160a01b039390931692909217909155600555604080518082018252600c808252607d60208084019182526003805460018181018355600083815296517fc2575a0e9e593c00f959f8c92f12db2869c3395a3b0502d05e2516446f71f85b60029384028181019290925595517fc2575a0e9e593c00f959f8c92f12db2869c3395a3b0502d05e2516446f71f85c918201558851808a018a52600f808252607382880190815286548086018855878c529251928602808a019390935551918301919091558951808b018b526012808252606e82890190815287548087018955888d529251928702808b019390935551918401919091558a51808c018c52988952606489880190815286548086018855878c529951998602808a019a909a5551988301989098558951808b018b52908152605a81870190815285548085018755868b5291519185028089019290925551908201558851808a0190995295885260509388019384528254908101835591909552945194909302908101939093559051910155620002a5565b82805482825590600052602060002090810192821562000240579160200282015b8281111562000240578251829060ff169055916020019190600101906200021e565b506200024e92915062000252565b5090565b5b808211156200024e576000815560010162000253565b600080604083850312156200027d57600080fd5b82516001600160a01b03811681146200029557600080fd5b6020939093015192949293505050565b61161380620002b56000396000f3fe6080604052600436106101c25760003560e01c80636bb18556116100f7578063a51b953311610095578063c234123811610064578063c234123814610570578063d7ffca9114610586578063e262113e146105bf578063e85abe09146105dc57600080fd5b8063a51b953314610494578063a8aeb6c2146104b4578063aecaa634146104ea578063c0806b031461051f57600080fd5b80637e3abeea116100d15780637e3abeea14610428578063817b1cd2146104485780638ea5220f1461045e5780639bff5ddb1461047e57600080fd5b80636bb18556146103d75780636f9fb98a146103f75780637d8cb7a21461040a57600080fd5b8063436a88c111610164578063581c5ae61161013e578063581c5ae61461036e5780635936cf6114610381578063600d20ce146103a157806369b11dd5146103c157600080fd5b8063436a88c11461030b57806348c372031461032057806357fc86b41461035957600080fd5b8063153ab9df116101a0578063153ab9df1461027657806332bc298c1461029657806336144c9a146102ad5780633ccfd60b1461030157600080fd5b806301c234a8146101c757806303a93c0c146101f0578063040a772e14610256575b600080fd5b3480156101d357600080fd5b506101dd6103e881565b6040519081526020015b60405180910390f35b3480156101fc57600080fd5b5061023b61020b36600461145e565b6001600160a01b031660009081526004602081905260409091206003810154918101546005909101549192909190565b604080519384526020840192909252908201526060016101e7565b34801561026257600080fd5b506101dd61027136600461145e565b610615565b34801561028257600080fd5b506101dd61029136600461145e565b61088d565b3480156102a257600080fd5b506101dd6201518081565b3480156102b957600080fd5b506102e96102c836600461145e565b6001600160a01b039081166000908152600460205260409020600201541690565b6040516001600160a01b0390911681526020016101e7565b6103096108c3565b005b34801561031757600080fd5b506101dd609681565b34801561032c57600080fd5b506101dd61033b36600461145e565b6001600160a01b031660009081526004602052604090206007015490565b34801561036557600080fd5b506101dd600581565b61030961037c3660046114a3565b610a11565b34801561038d57600080fd5b5061023b61039c36600461150a565b610fe6565b3480156103ad57600080fd5b506101dd6103bc3660046114d6565b611102565b3480156103cd57600080fd5b506101dd60025481565b3480156103e357600080fd5b506101dd6103f236600461145e565b611123565b34801561040357600080fd5b50476101dd565b34801561041657600080fd5b506101dd690a968163f0a57b40000081565b34801561043457600080fd5b506101dd61044336600461145e565b61114f565b34801561045457600080fd5b506101dd60015481565b34801561046a57600080fd5b506006546102e9906001600160a01b031681565b34801561048a57600080fd5b506101dd6105dc81565b3480156104a057600080fd5b506101dd6104af3660046114ef565b6111dd565b3480156104c057600080fd5b506101dd6104cf36600461145e565b6001600160a01b031660009081526004602052604090205490565b3480156104f657600080fd5b5061050a6105053660046114ef565b61127d565b604080519283526020830191909152016101e7565b34801561052b57600080fd5b5061053f61053a366004611479565b6112d9565b6040805160ff90971687526020870195909552938501929092526060840152608083015260a082015260c0016101e7565b34801561057c57600080fd5b506101dd60055481565b34801561059257600080fd5b506101dd6105a136600461145e565b6001600160a01b031660009081526004602052604090206001015490565b3480156105cb57600080fd5b506101dd6801158e460913d0000081565b3480156105e857600080fd5b506101dd6105f736600461145e565b6001600160a01b031660009081526004602052604090206006015490565b6001600160a01b038116600090815260046020526040812081805b82548110156108855782600001818154811061064e5761064e6115c7565b90600052602060002090600602016005015483600101541015610873576003836000018281548110610682576106826115c7565b600091825260209091206006909102015460ff1610156108095760006107096103e86107038660000185815481106106bc576106bc6115c7565b9060005260206000209060060201600101548760000186815481106106e3576106e36115c7565b9060005260206000209060060201600201546113ff90919063ffffffff16565b90611412565b905060008460010154856000018481548110610727576107276115c7565b90600052602060002090600602016004015411610748578460010154610770565b84600001838154811061075d5761075d6115c7565b9060005260206000209060060201600401545b905060004286600001858154811061078a5761078a6115c7565b906000526020600020906006020160050154106107a757426107cf565b8560000184815481106107bc576107bc6115c7565b9060005260206000209060060201600501545b905080821015610801576107fe6107f7620151806107036107f0858761141e565b87906113ff565b869061142a565b94505b505050610873565b82600001818154811061081e5761081e6115c7565b9060005260206000209060060201600501544211156108735761087083600001828154811061084f5761084f6115c7565b9060005260206000209060060201600301548361142a90919063ffffffff16565b91505b8061087d81611596565b915050610630565b509392505050565b60006108bd61089b83610615565b6001600160a01b0384166000908152600460205260409020600601549061142a565b92915050565b33600081815260046020526040812091906108dd82610615565b905060006108f3612710610703846105dc6113ff565b90506108ff828261141e565b33600090815260046020526040902060060154909250801561092f576000600686015561092c838261142a565b92505b6000831161097c5760405162461bcd60e51b81526020600482015260156024820152745573657220686173206e6f206469766964656e647360581b60448201526064015b60405180910390fd5b4783811015610989578093505b4260018701556040516001600160a01b0386169085156108fc029086906000818181858888f193505050501580156109c5573d6000803e3d6000fd5b50846001600160a01b03167f7084f5476618d8e60b11ef0d7d3f06914655adb8793e28ff7f018d4c76d505d585604051610a0191815260200190565b60405180910390a2505050505050565b6005544211610a595760405162461bcd60e51b8152602060048201526014602482015273576520617265206e6f74206c697665207965742160601b6044820152606401610973565b6801158e460913d00000341015610ab25760405162461bcd60e51b815260206004820152601960248201527f4d696e696d756d20696e766573746d656e7420697320302e31000000000000006044820152606401610973565b690a968163f0a57b400000341115610b1f5760405162461bcd60e51b815260206004820152602a60248201527f596f752063616e206e6f7420696e76657374206d6f7265207468616e203130306044820152693030206174206f6e636560b01b6064820152608401610973565b60068160ff1610610b615760405162461bcd60e51b815260206004820152600c60248201526b24b73b30b634b210383630b760a11b6044820152606401610973565b33600090815260046020526040812090610b826103e86107033460966113ff565b6006546040519192506001600160a01b03169082156108fc029083906000818181858888f19350505050158015610bbd573d6000803e3d6000fd5b5060028201546001600160a01b0316610d02576001600160a01b03841660009081526004602052604090205415801590610c0057506001600160a01b0384163314155b15610c23576002820180546001600160a01b0319166001600160a01b0386161790555b60028201546001600160a01b031660005b6003811015610cff576001600160a01b03821615610ce857610c92600160046000856001600160a01b03166001600160a01b031681526020019081526020016000206003018360038110610c8a57610c8a6115c7565b01549061142a565b6001600160a01b038316600090815260046020526040902060039081019083908110610cc057610cc06115c7565b01556001600160a01b0391821660009081526004602052604090206002015490911690610ced565b610cff565b80610cf781611596565b915050610c34565b50505b60028201546001600160a01b031615610e655760028201546001600160a01b031660005b6003811015610e62576001600160a01b03821615610e4b576000610d766103e861070360008581548110610d5c57610d5c6115c7565b9060005260206000200154346113ff90919063ffffffff16565b6001600160a01b038416600090815260046020526040902060060154909150610d9f908261142a565b6001600160a01b0384166000908152600460205260409020600681019190915560070154610dcd908261142a565b6001600160a01b038416600081815260046020908152604091829020600701939093555183815284923392917fd41f7e766eebcc7ff42b11ac8691bdf864db4afc0c55e71d629d54edce460d98910160405180910390a4506001600160a01b0391821660009081526004602052604090206002015490911690610e50565b610e62565b80610e5a81611596565b915050610d26565b50505b8154610ea5574260018301556040513381527f9fd565cd14c3c391679eb0cad12a14dcf7534e9d3462bcb9b67a098a9bbbc24a9060200160405180910390a15b6000806000610eb48634610fe6565b925092509250846000016040518060c001604052808860ff16815260200185815260200134815260200184815260200142815260200183815250908060018154018082558091505060019003906000526020600020906006020160009091909190915060008201518160000160006101000a81548160ff021916908360ff1602179055506020820151816001015560408201518160020155606082015181600301556080820151816004015560a082015181600501555050610f813460015461142a90919063ffffffff16565b6001556040805160ff881681526020810185905234818301526060810184905242608082015260a08101839052905133917f84e02daa69bdb087c9fe8d3041abca495512cb14e723070f6d1d4efface82e5d919081900360c00190a250505050505050565b6000806000610ff4856111dd565b925060038560ff1610156110495761104260038660ff168154811061101b5761101b6115c7565b600091825260209091206002909102015461103c6103e861070388886113ff565b906113ff565b91506110bb565b60068560ff1610156110bb5760005b60038660ff168154811061106e5761106e6115c7565b9060005260206000209060020201600001548110156110b9576110a561109e6103e86107038761103c8a8961142a565b849061142a565b9250806110b181611596565b915050611058565b505b6110f96110f26201518060038860ff16815481106110db576110db6115c7565b6000918252602090912060029091020154906113ff565b429061142a565b90509250925092565b6000818154811061111257600080fd5b600091825260209091200154905081565b6001600160a01b038116600090815260046020526040812060068101546007909101546108bd9161141e565b6000805b6001600160a01b0383166000908152600460205260409020548110156111d7576001600160a01b038316600090815260046020526040902080546111c39190839081106111a2576111a26115c7565b9060005260206000209060060201600201548361142a90919063ffffffff16565b9150806111cf81611596565b915050611153565b50919050565b6000600554421115611249576108bd6112136201518061070361120b6005544261141e90919063ffffffff16565b6005906113ff565b60038460ff1681548110611229576112296115c7565b90600052602060002090600202016001015461142a90919063ffffffff16565b60038260ff168154811061125f5761125f6115c7565b9060005260206000209060020201600101549050919050565b919050565b60008060038360ff1681548110611296576112966115c7565b906000526020600020906002020160000154915060038360ff16815481106112c0576112c06115c7565b9060005260206000209060020201600101549050915091565b6001600160a01b038216600090815260046020526040812080548291829182918291829190819089908110611310576113106115c7565b6000918252602090912060069091020154815460ff909116975081908990811061133c5761133c6115c7565b9060005260206000209060060201600101549550806000018881548110611365576113656115c7565b906000526020600020906006020160020154945080600001888154811061138e5761138e6115c7565b90600052602060002090600602016003015493508060000188815481106113b7576113b76115c7565b90600052602060002090600602016004015492508060000188815481106113e0576113e06115c7565b9060005260206000209060060201600501549150509295509295509295565b600061140b8284611560565b9392505050565b600061140b828461153e565b600061140b828461157f565b600061140b8284611526565b80356001600160a01b038116811461127857600080fd5b803560ff8116811461127857600080fd5b60006020828403121561147057600080fd5b61140b82611436565b6000806040838503121561148c57600080fd5b61149583611436565b946020939093013593505050565b600080604083850312156114b657600080fd5b6114bf83611436565b91506114cd6020840161144d565b90509250929050565b6000602082840312156114e857600080fd5b5035919050565b60006020828403121561150157600080fd5b61140b8261144d565b6000806040838503121561151d57600080fd5b6114958361144d565b60008219821115611539576115396115b1565b500190565b60008261155b57634e487b7160e01b600052601260045260246000fd5b500490565b600081600019048311821515161561157a5761157a6115b1565b500290565b600082821015611591576115916115b1565b500390565b60006000198214156115aa576115aa6115b1565b5060010190565b634e487b7160e01b600052601160045260246000fd5b634e487b7160e01b600052603260045260246000fdfea26469706673582212207add3da65562f295ff743860cb3cbdfcb61a303801d5354eeb7520f7e2a0244e64736f6c63430008070033",
			"opcodes": "PUSH1 0xE0 PUSH1 0x40 MSTORE PUSH1 0x32 PUSH1 0x80 SWAP1 DUP2 MSTORE PUSH1 0x19 PUSH1 0xA0 MSTORE PUSH1 0x5 PUSH1 0xC0 MSTORE PUSH3 0x25 SWAP1 PUSH1 0x0 SWAP1 PUSH1 0x3 PUSH3 0x1FD JUMP JUMPDEST POP CALLVALUE DUP1 ISZERO PUSH3 0x33 JUMPI PUSH1 0x0 DUP1 REVERT JUMPDEST POP PUSH1 0x40 MLOAD PUSH3 0x18C8 CODESIZE SUB DUP1 PUSH3 0x18C8 DUP4 CODECOPY DUP2 ADD PUSH1 0x40 DUP2 SWAP1 MSTORE PUSH3 0x56 SWAP2 PUSH3 0x269 JUMP JUMPDEST PUSH1 0x0 DUP2 GT PUSH3 0x64 JUMPI PUSH1 0x0 DUP1 REVERT JUMPDEST PUSH1 0x6 DUP1 SLOAD PUSH1 0x1 PUSH1 0x1 PUSH1 0xA0 SHL SUB NOT AND PUSH1 0x1 PUSH1 0x1 PUSH1 0xA0 SHL SUB SWAP4 SWAP1 SWAP4 AND SWAP3 SWAP1 SWAP3 OR SWAP1 SWAP2 SSTORE PUSH1 0x5 SSTORE PUSH1 0x40 DUP1 MLOAD DUP1 DUP3 ADD DUP3 MSTORE PUSH1 0xC DUP1 DUP3 MSTORE PUSH1 0x7D PUSH1 0x20 DUP1 DUP5 ADD SWAP2 DUP3 MSTORE PUSH1 0x3 DUP1 SLOAD PUSH1 0x1 DUP2 DUP2 ADD DUP4 SSTORE PUSH1 0x0 DUP4 DUP2 MSTORE SWAP7 MLOAD PUSH32 0xC2575A0E9E593C00F959F8C92F12DB2869C3395A3B0502D05E2516446F71F85B PUSH1 0x2 SWAP4 DUP5 MUL DUP2 DUP2 ADD SWAP3 SWAP1 SWAP3 SSTORE SWAP6 MLOAD PUSH32 0xC2575A0E9E593C00F959F8C92F12DB2869C3395A3B0502D05E2516446F71F85C SWAP2 DUP3 ADD SSTORE DUP9 MLOAD DUP1 DUP11 ADD DUP11 MSTORE PUSH1 0xF DUP1 DUP3 MSTORE PUSH1 0x73 DUP3 DUP9 ADD SWAP1 DUP2 MSTORE DUP7 SLOAD DUP1 DUP7 ADD DUP9 SSTORE DUP8 DUP13 MSTORE SWAP3 MLOAD SWAP3 DUP7 MUL DUP1 DUP11 ADD SWAP4 SWAP1 SWAP4 SSTORE MLOAD SWAP2 DUP4 ADD SWAP2 SWAP1 SWAP2 SSTORE DUP10 MLOAD DUP1 DUP12 ADD DUP12 MSTORE PUSH1 0x12 DUP1 DUP3 MSTORE PUSH1 0x6E DUP3 DUP10 ADD SWAP1 DUP2 MSTORE DUP8 SLOAD DUP1 DUP8 ADD DUP10 SSTORE DUP9 DUP14 MSTORE SWAP3 MLOAD SWAP3 DUP8 MUL DUP1 DUP12 ADD SWAP4 SWAP1 SWAP4 SSTORE MLOAD SWAP2 DUP5 ADD SWAP2 SWAP1 SWAP2 SSTORE DUP11 MLOAD DUP1 DUP13 ADD DUP13 MSTORE SWAP9 DUP10 MSTORE PUSH1 0x64 DUP10 DUP9 ADD SWAP1 DUP2 MSTORE DUP7 SLOAD DUP1 DUP7 ADD DUP9 SSTORE DUP8 DUP13 MSTORE SWAP10 MLOAD SWAP10 DUP7 MUL DUP1 DUP11 ADD SWAP11 SWAP1 SWAP11 SSTORE MLOAD SWAP9 DUP4 ADD SWAP9 SWAP1 SWAP9 SSTORE DUP10 MLOAD DUP1 DUP12 ADD DUP12 MSTORE SWAP1 DUP2 MSTORE PUSH1 0x5A DUP2 DUP8 ADD SWAP1 DUP2 MSTORE DUP6 SLOAD DUP1 DUP6 ADD DUP8 SSTORE DUP7 DUP12 MSTORE SWAP2 MLOAD SWAP2 DUP6 MUL DUP1 DUP10 ADD SWAP3 SWAP1 SWAP3 SSTORE MLOAD SWAP1 DUP3 ADD SSTORE DUP9 MLOAD DUP1 DUP11 ADD SWAP1 SWAP10 MSTORE SWAP6 DUP9 MSTORE PUSH1 0x50 SWAP4 DUP9 ADD SWAP4 DUP5 MSTORE DUP3 SLOAD SWAP1 DUP2 ADD DUP4 SSTORE SWAP2 SWAP1 SWAP6 MSTORE SWAP5 MLOAD SWAP5 SWAP1 SWAP4 MUL SWAP1 DUP2 ADD SWAP4 SWAP1 SWAP4 SSTORE SWAP1 MLOAD SWAP2 ADD SSTORE PUSH3 0x2A5 JUMP JUMPDEST DUP3 DUP1 SLOAD DUP3 DUP3 SSTORE SWAP1 PUSH1 0x0 MSTORE PUSH1 0x20 PUSH1 0x0 KECCAK256 SWAP1 DUP2 ADD SWAP3 DUP3 ISZERO PUSH3 0x240 JUMPI SWAP2 PUSH1 0x20 MUL DUP3 ADD JUMPDEST DUP3 DUP2 GT ISZERO PUSH3 0x240 JUMPI DUP3 MLOAD DUP3 SWAP1 PUSH1 0xFF AND SWAP1 SSTORE SWAP2 PUSH1 0x20 ADD SWAP2 SWAP1 PUSH1 0x1 ADD SWAP1 PUSH3 0x21E JUMP JUMPDEST POP PUSH3 0x24E SWAP3 SWAP2 POP PUSH3 0x252 JUMP JUMPDEST POP SWAP1 JUMP JUMPDEST JUMPDEST DUP1 DUP3 GT ISZERO PUSH3 0x24E JUMPI PUSH1 0x0 DUP2 SSTORE PUSH1 0x1 ADD PUSH3 0x253 JUMP JUMPDEST PUSH1 0x0 DUP1 PUSH1 0x40 DUP4 DUP6 SUB SLT ISZERO PUSH3 0x27D JUMPI PUSH1 0x0 DUP1 REVERT JUMPDEST DUP3 MLOAD PUSH1 0x1 PUSH1 0x1 PUSH1 0xA0 SHL SUB DUP2 AND DUP2 EQ PUSH3 0x295 JUMPI PUSH1 0x0 DUP1 REVERT JUMPDEST PUSH1 0x20 SWAP4 SWAP1 SWAP4 ADD MLOAD SWAP3 SWAP5 SWAP3 SWAP4 POP POP POP JUMP JUMPDEST PUSH2 0x1613 DUP1 PUSH3 0x2B5 PUSH1 0x0 CODECOPY PUSH1 0x0 RETURN INVALID PUSH1 0x80 PUSH1 0x40 MSTORE PUSH1 0x4 CALLDATASIZE LT PUSH2 0x1C2 JUMPI PUSH1 0x0 CALLDATALOAD PUSH1 0xE0 SHR DUP1 PUSH4 0x6BB18556 GT PUSH2 0xF7 JUMPI DUP1 PUSH4 0xA51B9533 GT PUSH2 0x95 JUMPI DUP1 PUSH4 0xC2341238 GT PUSH2 0x64 JUMPI DUP1 PUSH4 0xC2341238 EQ PUSH2 0x570 JUMPI DUP1 PUSH4 0xD7FFCA91 EQ PUSH2 0x586 JUMPI DUP1 PUSH4 0xE262113E EQ PUSH2 0x5BF JUMPI DUP1 PUSH4 0xE85ABE09 EQ PUSH2 0x5DC JUMPI PUSH1 0x0 DUP1 REVERT JUMPDEST DUP1 PUSH4 0xA51B9533 EQ PUSH2 0x494 JUMPI DUP1 PUSH4 0xA8AEB6C2 EQ PUSH2 0x4B4 JUMPI DUP1 PUSH4 0xAECAA634 EQ PUSH2 0x4EA JUMPI DUP1 PUSH4 0xC0806B03 EQ PUSH2 0x51F JUMPI PUSH1 0x0 DUP1 REVERT JUMPDEST DUP1 PUSH4 0x7E3ABEEA GT PUSH2 0xD1 JUMPI DUP1 PUSH4 0x7E3ABEEA EQ PUSH2 0x428 JUMPI DUP1 PUSH4 0x817B1CD2 EQ PUSH2 0x448 JUMPI DUP1 PUSH4 0x8EA5220F EQ PUSH2 0x45E JUMPI DUP1 PUSH4 0x9BFF5DDB EQ PUSH2 0x47E JUMPI PUSH1 0x0 DUP1 REVERT JUMPDEST DUP1 PUSH4 0x6BB18556 EQ PUSH2 0x3D7 JUMPI DUP1 PUSH4 0x6F9FB98A EQ PUSH2 0x3F7 JUMPI DUP1 PUSH4 0x7D8CB7A2 EQ PUSH2 0x40A JUMPI PUSH1 0x0 DUP1 REVERT JUMPDEST DUP1 PUSH4 0x436A88C1 GT PUSH2 0x164 JUMPI DUP1 PUSH4 0x581C5AE6 GT PUSH2 0x13E JUMPI DUP1 PUSH4 0x581C5AE6 EQ PUSH2 0x36E JUMPI DUP1 PUSH4 0x5936CF61 EQ PUSH2 0x381 JUMPI DUP1 PUSH4 0x600D20CE EQ PUSH2 0x3A1 JUMPI DUP1 PUSH4 0x69B11DD5 EQ PUSH2 0x3C1 JUMPI PUSH1 0x0 DUP1 REVERT JUMPDEST DUP1 PUSH4 0x436A88C1 EQ PUSH2 0x30B JUMPI DUP1 PUSH4 0x48C37203 EQ PUSH2 0x320 JUMPI DUP1 PUSH4 0x57FC86B4 EQ PUSH2 0x359 JUMPI PUSH1 0x0 DUP1 REVERT JUMPDEST DUP1 PUSH4 0x153AB9DF GT PUSH2 0x1A0 JUMPI DUP1 PUSH4 0x153AB9DF EQ PUSH2 0x276 JUMPI DUP1 PUSH4 0x32BC298C EQ PUSH2 0x296 JUMPI DUP1 PUSH4 0x36144C9A EQ PUSH2 0x2AD JUMPI DUP1 PUSH4 0x3CCFD60B EQ PUSH2 0x301 JUMPI PUSH1 0x0 DUP1 REVERT JUMPDEST DUP1 PUSH4 0x1C234A8 EQ PUSH2 0x1C7 JUMPI DUP1 PUSH4 0x3A93C0C EQ PUSH2 0x1F0 JUMPI DUP1 PUSH4 0x40A772E EQ PUSH2 0x256 JUMPI JUMPDEST PUSH1 0x0 DUP1 REVERT JUMPDEST CALLVALUE DUP1 ISZERO PUSH2 0x1D3 JUMPI PUSH1 0x0 DUP1 REVERT JUMPDEST POP PUSH2 0x1DD PUSH2 0x3E8 DUP2 JUMP JUMPDEST PUSH1 0x40 MLOAD SWAP1 DUP2 MSTORE PUSH1 0x20 ADD JUMPDEST PUSH1 0x40 MLOAD DUP1 SWAP2 SUB SWAP1 RETURN JUMPDEST CALLVALUE DUP1 ISZERO PUSH2 0x1FC JUMPI PUSH1 0x0 DUP1 REVERT JUMPDEST POP PUSH2 0x23B PUSH2 0x20B CALLDATASIZE PUSH1 0x4 PUSH2 0x145E JUMP JUMPDEST PUSH1 0x1 PUSH1 0x1 PUSH1 0xA0 SHL SUB AND PUSH1 0x0 SWAP1 DUP2 MSTORE PUSH1 0x4 PUSH1 0x20 DUP2 SWAP1 MSTORE PUSH1 0x40 SWAP1 SWAP2 KECCAK256 PUSH1 0x3 DUP2 ADD SLOAD SWAP2 DUP2 ADD SLOAD PUSH1 0x5 SWAP1 SWAP2 ADD SLOAD SWAP2 SWAP3 SWAP1 SWAP2 SWAP1 JUMP JUMPDEST PUSH1 0x40 DUP1 MLOAD SWAP4 DUP5 MSTORE PUSH1 0x20 DUP5 ADD SWAP3 SWAP1 SWAP3 MSTORE SWAP1 DUP3 ADD MSTORE PUSH1 0x60 ADD PUSH2 0x1E7 JUMP JUMPDEST CALLVALUE DUP1 ISZERO PUSH2 0x262 JUMPI PUSH1 0x0 DUP1 REVERT JUMPDEST POP PUSH2 0x1DD PUSH2 0x271 CALLDATASIZE PUSH1 0x4 PUSH2 0x145E JUMP JUMPDEST PUSH2 0x615 JUMP JUMPDEST CALLVALUE DUP1 ISZERO PUSH2 0x282 JUMPI PUSH1 0x0 DUP1 REVERT JUMPDEST POP PUSH2 0x1DD PUSH2 0x291 CALLDATASIZE PUSH1 0x4 PUSH2 0x145E JUMP JUMPDEST PUSH2 0x88D JUMP JUMPDEST CALLVALUE DUP1 ISZERO PUSH2 0x2A2 JUMPI PUSH1 0x0 DUP1 REVERT JUMPDEST POP PUSH2 0x1DD PUSH3 0x15180 DUP2 JUMP JUMPDEST CALLVALUE DUP1 ISZERO PUSH2 0x2B9 JUMPI PUSH1 0x0 DUP1 REVERT JUMPDEST POP PUSH2 0x2E9 PUSH2 0x2C8 CALLDATASIZE PUSH1 0x4 PUSH2 0x145E JUMP JUMPDEST PUSH1 0x1 PUSH1 0x1 PUSH1 0xA0 SHL SUB SWAP1 DUP2 AND PUSH1 0x0 SWAP1 DUP2 MSTORE PUSH1 0x4 PUSH1 0x20 MSTORE PUSH1 0x40 SWAP1 KECCAK256 PUSH1 0x2 ADD SLOAD AND SWAP1 JUMP JUMPDEST PUSH1 0x40 MLOAD PUSH1 0x1 PUSH1 0x1 PUSH1 0xA0 SHL SUB SWAP1 SWAP2 AND DUP2 MSTORE PUSH1 0x20 ADD PUSH2 0x1E7 JUMP JUMPDEST PUSH2 0x309 PUSH2 0x8C3 JUMP JUMPDEST STOP JUMPDEST CALLVALUE DUP1 ISZERO PUSH2 0x317 JUMPI PUSH1 0x0 DUP1 REVERT JUMPDEST POP PUSH2 0x1DD PUSH1 0x96 DUP2 JUMP JUMPDEST CALLVALUE DUP1 ISZERO PUSH2 0x32C JUMPI PUSH1 0x0 DUP1 REVERT JUMPDEST POP PUSH2 0x1DD PUSH2 0x33B CALLDATASIZE PUSH1 0x4 PUSH2 0x145E JUMP JUMPDEST PUSH1 0x1 PUSH1 0x1 PUSH1 0xA0 SHL SUB AND PUSH1 0x0 SWAP1 DUP2 MSTORE PUSH1 0x4 PUSH1 0x20 MSTORE PUSH1 0x40 SWAP1 KECCAK256 PUSH1 0x7 ADD SLOAD SWAP1 JUMP JUMPDEST CALLVALUE DUP1 ISZERO PUSH2 0x365 JUMPI PUSH1 0x0 DUP1 REVERT JUMPDEST POP PUSH2 0x1DD PUSH1 0x5 DUP2 JUMP JUMPDEST PUSH2 0x309 PUSH2 0x37C CALLDATASIZE PUSH1 0x4 PUSH2 0x14A3 JUMP JUMPDEST PUSH2 0xA11 JUMP JUMPDEST CALLVALUE DUP1 ISZERO PUSH2 0x38D JUMPI PUSH1 0x0 DUP1 REVERT JUMPDEST POP PUSH2 0x23B PUSH2 0x39C CALLDATASIZE PUSH1 0x4 PUSH2 0x150A JUMP JUMPDEST PUSH2 0xFE6 JUMP JUMPDEST CALLVALUE DUP1 ISZERO PUSH2 0x3AD JUMPI PUSH1 0x0 DUP1 REVERT JUMPDEST POP PUSH2 0x1DD PUSH2 0x3BC CALLDATASIZE PUSH1 0x4 PUSH2 0x14D6 JUMP JUMPDEST PUSH2 0x1102 JUMP JUMPDEST CALLVALUE DUP1 ISZERO PUSH2 0x3CD JUMPI PUSH1 0x0 DUP1 REVERT JUMPDEST POP PUSH2 0x1DD PUSH1 0x2 SLOAD DUP2 JUMP JUMPDEST CALLVALUE DUP1 ISZERO PUSH2 0x3E3 JUMPI PUSH1 0x0 DUP1 REVERT JUMPDEST POP PUSH2 0x1DD PUSH2 0x3F2 CALLDATASIZE PUSH1 0x4 PUSH2 0x145E JUMP JUMPDEST PUSH2 0x1123 JUMP JUMPDEST CALLVALUE DUP1 ISZERO PUSH2 0x403 JUMPI PUSH1 0x0 DUP1 REVERT JUMPDEST POP SELFBALANCE PUSH2 0x1DD JUMP JUMPDEST CALLVALUE DUP1 ISZERO PUSH2 0x416 JUMPI PUSH1 0x0 DUP1 REVERT JUMPDEST POP PUSH2 0x1DD PUSH10 0xA968163F0A57B400000 DUP2 JUMP JUMPDEST CALLVALUE DUP1 ISZERO PUSH2 0x434 JUMPI PUSH1 0x0 DUP1 REVERT JUMPDEST POP PUSH2 0x1DD PUSH2 0x443 CALLDATASIZE PUSH1 0x4 PUSH2 0x145E JUMP JUMPDEST PUSH2 0x114F JUMP JUMPDEST CALLVALUE DUP1 ISZERO PUSH2 0x454 JUMPI PUSH1 0x0 DUP1 REVERT JUMPDEST POP PUSH2 0x1DD PUSH1 0x1 SLOAD DUP2 JUMP JUMPDEST CALLVALUE DUP1 ISZERO PUSH2 0x46A JUMPI PUSH1 0x0 DUP1 REVERT JUMPDEST POP PUSH1 0x6 SLOAD PUSH2 0x2E9 SWAP1 PUSH1 0x1 PUSH1 0x1 PUSH1 0xA0 SHL SUB AND DUP2 JUMP JUMPDEST CALLVALUE DUP1 ISZERO PUSH2 0x48A JUMPI PUSH1 0x0 DUP1 REVERT JUMPDEST POP PUSH2 0x1DD PUSH2 0x5DC DUP2 JUMP JUMPDEST CALLVALUE DUP1 ISZERO PUSH2 0x4A0 JUMPI PUSH1 0x0 DUP1 REVERT JUMPDEST POP PUSH2 0x1DD PUSH2 0x4AF CALLDATASIZE PUSH1 0x4 PUSH2 0x14EF JUMP JUMPDEST PUSH2 0x11DD JUMP JUMPDEST CALLVALUE DUP1 ISZERO PUSH2 0x4C0 JUMPI PUSH1 0x0 DUP1 REVERT JUMPDEST POP PUSH2 0x1DD PUSH2 0x4CF CALLDATASIZE PUSH1 0x4 PUSH2 0x145E JUMP JUMPDEST PUSH1 0x1 PUSH1 0x1 PUSH1 0xA0 SHL SUB AND PUSH1 0x0 SWAP1 DUP2 MSTORE PUSH1 0x4 PUSH1 0x20 MSTORE PUSH1 0x40 SWAP1 KECCAK256 SLOAD SWAP1 JUMP JUMPDEST CALLVALUE DUP1 ISZERO PUSH2 0x4F6 JUMPI PUSH1 0x0 DUP1 REVERT JUMPDEST POP PUSH2 0x50A PUSH2 0x505 CALLDATASIZE PUSH1 0x4 PUSH2 0x14EF JUMP JUMPDEST PUSH2 0x127D JUMP JUMPDEST PUSH1 0x40 DUP1 MLOAD SWAP3 DUP4 MSTORE PUSH1 0x20 DUP4 ADD SWAP2 SWAP1 SWAP2 MSTORE ADD PUSH2 0x1E7 JUMP JUMPDEST CALLVALUE DUP1 ISZERO PUSH2 0x52B JUMPI PUSH1 0x0 DUP1 REVERT JUMPDEST POP PUSH2 0x53F PUSH2 0x53A CALLDATASIZE PUSH1 0x4 PUSH2 0x1479 JUMP JUMPDEST PUSH2 0x12D9 JUMP JUMPDEST PUSH1 0x40 DUP1 MLOAD PUSH1 0xFF SWAP1 SWAP8 AND DUP8 MSTORE PUSH1 0x20 DUP8 ADD SWAP6 SWAP1 SWAP6 MSTORE SWAP4 DUP6 ADD SWAP3 SWAP1 SWAP3 MSTORE PUSH1 0x60 DUP5 ADD MSTORE PUSH1 0x80 DUP4 ADD MSTORE PUSH1 0xA0 DUP3 ADD MSTORE PUSH1 0xC0 ADD PUSH2 0x1E7 JUMP JUMPDEST CALLVALUE DUP1 ISZERO PUSH2 0x57C JUMPI PUSH1 0x0 DUP1 REVERT JUMPDEST POP PUSH2 0x1DD PUSH1 0x5 SLOAD DUP2 JUMP JUMPDEST CALLVALUE DUP1 ISZERO PUSH2 0x592 JUMPI PUSH1 0x0 DUP1 REVERT JUMPDEST POP PUSH2 0x1DD PUSH2 0x5A1 CALLDATASIZE PUSH1 0x4 PUSH2 0x145E JUMP JUMPDEST PUSH1 0x1 PUSH1 0x1 PUSH1 0xA0 SHL SUB AND PUSH1 0x0 SWAP1 DUP2 MSTORE PUSH1 0x4 PUSH1 0x20 MSTORE PUSH1 0x40 SWAP1 KECCAK256 PUSH1 0x1 ADD SLOAD SWAP1 JUMP JUMPDEST CALLVALUE DUP1 ISZERO PUSH2 0x5CB JUMPI PUSH1 0x0 DUP1 REVERT JUMPDEST POP PUSH2 0x1DD PUSH9 0x1158E460913D00000 DUP2 JUMP JUMPDEST CALLVALUE DUP1 ISZERO PUSH2 0x5E8 JUMPI PUSH1 0x0 DUP1 REVERT JUMPDEST POP PUSH2 0x1DD PUSH2 0x5F7 CALLDATASIZE PUSH1 0x4 PUSH2 0x145E JUMP JUMPDEST PUSH1 0x1 PUSH1 0x1 PUSH1 0xA0 SHL SUB AND PUSH1 0x0 SWAP1 DUP2 MSTORE PUSH1 0x4 PUSH1 0x20 MSTORE PUSH1 0x40 SWAP1 KECCAK256 PUSH1 0x6 ADD SLOAD SWAP1 JUMP JUMPDEST PUSH1 0x1 PUSH1 0x1 PUSH1 0xA0 SHL SUB DUP2 AND PUSH1 0x0 SWAP1 DUP2 MSTORE PUSH1 0x4 PUSH1 0x20 MSTORE PUSH1 0x40 DUP2 KECCAK256 DUP2 DUP1 JUMPDEST DUP3 SLOAD DUP2 LT ISZERO PUSH2 0x885 JUMPI DUP3 PUSH1 0x0 ADD DUP2 DUP2 SLOAD DUP2 LT PUSH2 0x64E JUMPI PUSH2 0x64E PUSH2 0x15C7 JUMP JUMPDEST SWAP1 PUSH1 0x0 MSTORE PUSH1 0x20 PUSH1 0x0 KECCAK256 SWAP1 PUSH1 0x6 MUL ADD PUSH1 0x5 ADD SLOAD DUP4 PUSH1 0x1 ADD SLOAD LT ISZERO PUSH2 0x873 JUMPI PUSH1 0x3 DUP4 PUSH1 0x0 ADD DUP3 DUP2 SLOAD DUP2 LT PUSH2 0x682 JUMPI PUSH2 0x682 PUSH2 0x15C7 JUMP JUMPDEST PUSH1 0x0 SWAP2 DUP3 MSTORE PUSH1 0x20 SWAP1 SWAP2 KECCAK256 PUSH1 0x6 SWAP1 SWAP2 MUL ADD SLOAD PUSH1 0xFF AND LT ISZERO PUSH2 0x809 JUMPI PUSH1 0x0 PUSH2 0x709 PUSH2 0x3E8 PUSH2 0x703 DUP7 PUSH1 0x0 ADD DUP6 DUP2 SLOAD DUP2 LT PUSH2 0x6BC JUMPI PUSH2 0x6BC PUSH2 0x15C7 JUMP JUMPDEST SWAP1 PUSH1 0x0 MSTORE PUSH1 0x20 PUSH1 0x0 KECCAK256 SWAP1 PUSH1 0x6 MUL ADD PUSH1 0x1 ADD SLOAD DUP8 PUSH1 0x0 ADD DUP7 DUP2 SLOAD DUP2 LT PUSH2 0x6E3 JUMPI PUSH2 0x6E3 PUSH2 0x15C7 JUMP JUMPDEST SWAP1 PUSH1 0x0 MSTORE PUSH1 0x20 PUSH1 0x0 KECCAK256 SWAP1 PUSH1 0x6 MUL ADD PUSH1 0x2 ADD SLOAD PUSH2 0x13FF SWAP1 SWAP2 SWAP1 PUSH4 0xFFFFFFFF AND JUMP JUMPDEST SWAP1 PUSH2 0x1412 JUMP JUMPDEST SWAP1 POP PUSH1 0x0 DUP5 PUSH1 0x1 ADD SLOAD DUP6 PUSH1 0x0 ADD DUP5 DUP2 SLOAD DUP2 LT PUSH2 0x727 JUMPI PUSH2 0x727 PUSH2 0x15C7 JUMP JUMPDEST SWAP1 PUSH1 0x0 MSTORE PUSH1 0x20 PUSH1 0x0 KECCAK256 SWAP1 PUSH1 0x6 MUL ADD PUSH1 0x4 ADD SLOAD GT PUSH2 0x748 JUMPI DUP5 PUSH1 0x1 ADD SLOAD PUSH2 0x770 JUMP JUMPDEST DUP5 PUSH1 0x0 ADD DUP4 DUP2 SLOAD DUP2 LT PUSH2 0x75D JUMPI PUSH2 0x75D PUSH2 0x15C7 JUMP JUMPDEST SWAP1 PUSH1 0x0 MSTORE PUSH1 0x20 PUSH1 0x0 KECCAK256 SWAP1 PUSH1 0x6 MUL ADD PUSH1 0x4 ADD SLOAD JUMPDEST SWAP1 POP PUSH1 0x0 TIMESTAMP DUP7 PUSH1 0x0 ADD DUP6 DUP2 SLOAD DUP2 LT PUSH2 0x78A JUMPI PUSH2 0x78A PUSH2 0x15C7 JUMP JUMPDEST SWAP1 PUSH1 0x0 MSTORE PUSH1 0x20 PUSH1 0x0 KECCAK256 SWAP1 PUSH1 0x6 MUL ADD PUSH1 0x5 ADD SLOAD LT PUSH2 0x7A7 JUMPI TIMESTAMP PUSH2 0x7CF JUMP JUMPDEST DUP6 PUSH1 0x0 ADD DUP5 DUP2 SLOAD DUP2 LT PUSH2 0x7BC JUMPI PUSH2 0x7BC PUSH2 0x15C7 JUMP JUMPDEST SWAP1 PUSH1 0x0 MSTORE PUSH1 0x20 PUSH1 0x0 KECCAK256 SWAP1 PUSH1 0x6 MUL ADD PUSH1 0x5 ADD SLOAD JUMPDEST SWAP1 POP DUP1 DUP3 LT ISZERO PUSH2 0x801 JUMPI PUSH2 0x7FE PUSH2 0x7F7 PUSH3 0x15180 PUSH2 0x703 PUSH2 0x7F0 DUP6 DUP8 PUSH2 0x141E JUMP JUMPDEST DUP8 SWAP1 PUSH2 0x13FF JUMP JUMPDEST DUP7 SWAP1 PUSH2 0x142A JUMP JUMPDEST SWAP5 POP JUMPDEST POP POP POP PUSH2 0x873 JUMP JUMPDEST DUP3 PUSH1 0x0 ADD DUP2 DUP2 SLOAD DUP2 LT PUSH2 0x81E JUMPI PUSH2 0x81E PUSH2 0x15C7 JUMP JUMPDEST SWAP1 PUSH1 0x0 MSTORE PUSH1 0x20 PUSH1 0x0 KECCAK256 SWAP1 PUSH1 0x6 MUL ADD PUSH1 0x5 ADD SLOAD TIMESTAMP GT ISZERO PUSH2 0x873 JUMPI PUSH2 0x870 DUP4 PUSH1 0x0 ADD DUP3 DUP2 SLOAD DUP2 LT PUSH2 0x84F JUMPI PUSH2 0x84F PUSH2 0x15C7 JUMP JUMPDEST SWAP1 PUSH1 0x0 MSTORE PUSH1 0x20 PUSH1 0x0 KECCAK256 SWAP1 PUSH1 0x6 MUL ADD PUSH1 0x3 ADD SLOAD DUP4 PUSH2 0x142A SWAP1 SWAP2 SWAP1 PUSH4 0xFFFFFFFF AND JUMP JUMPDEST SWAP2 POP JUMPDEST DUP1 PUSH2 0x87D DUP2 PUSH2 0x1596 JUMP JUMPDEST SWAP2 POP POP PUSH2 0x630 JUMP JUMPDEST POP SWAP4 SWAP3 POP POP POP JUMP JUMPDEST PUSH1 0x0 PUSH2 0x8BD PUSH2 0x89B DUP4 PUSH2 0x615 JUMP JUMPDEST PUSH1 0x1 PUSH1 0x1 PUSH1 0xA0 SHL SUB DUP5 AND PUSH1 0x0 SWAP1 DUP2 MSTORE PUSH1 0x4 PUSH1 0x20 MSTORE PUSH1 0x40 SWAP1 KECCAK256 PUSH1 0x6 ADD SLOAD SWAP1 PUSH2 0x142A JUMP JUMPDEST SWAP3 SWAP2 POP POP JUMP JUMPDEST CALLER PUSH1 0x0 DUP2 DUP2 MSTORE PUSH1 0x4 PUSH1 0x20 MSTORE PUSH1 0x40 DUP2 KECCAK256 SWAP2 SWAP1 PUSH2 0x8DD DUP3 PUSH2 0x615 JUMP JUMPDEST SWAP1 POP PUSH1 0x0 PUSH2 0x8F3 PUSH2 0x2710 PUSH2 0x703 DUP5 PUSH2 0x5DC PUSH2 0x13FF JUMP JUMPDEST SWAP1 POP PUSH2 0x8FF DUP3 DUP3 PUSH2 0x141E JUMP JUMPDEST CALLER PUSH1 0x0 SWAP1 DUP2 MSTORE PUSH1 0x4 PUSH1 0x20 MSTORE PUSH1 0x40 SWAP1 KECCAK256 PUSH1 0x6 ADD SLOAD SWAP1 SWAP3 POP DUP1 ISZERO PUSH2 0x92F JUMPI PUSH1 0x0 PUSH1 0x6 DUP7 ADD SSTORE PUSH2 0x92C DUP4 DUP3 PUSH2 0x142A JUMP JUMPDEST SWAP3 POP JUMPDEST PUSH1 0x0 DUP4 GT PUSH2 0x97C JUMPI PUSH1 0x40 MLOAD PUSH3 0x461BCD PUSH1 0xE5 SHL DUP2 MSTORE PUSH1 0x20 PUSH1 0x4 DUP3 ADD MSTORE PUSH1 0x15 PUSH1 0x24 DUP3 ADD MSTORE PUSH21 0x5573657220686173206E6F206469766964656E6473 PUSH1 0x58 SHL PUSH1 0x44 DUP3 ADD MSTORE PUSH1 0x64 ADD JUMPDEST PUSH1 0x40 MLOAD DUP1 SWAP2 SUB SWAP1 REVERT JUMPDEST SELFBALANCE DUP4 DUP2 LT ISZERO PUSH2 0x989 JUMPI DUP1 SWAP4 POP JUMPDEST TIMESTAMP PUSH1 0x1 DUP8 ADD SSTORE PUSH1 0x40 MLOAD PUSH1 0x1 PUSH1 0x1 PUSH1 0xA0 SHL SUB DUP7 AND SWAP1 DUP6 ISZERO PUSH2 0x8FC MUL SWAP1 DUP7 SWAP1 PUSH1 0x0 DUP2 DUP2 DUP2 DUP6 DUP9 DUP9 CALL SWAP4 POP POP POP POP ISZERO DUP1 ISZERO PUSH2 0x9C5 JUMPI RETURNDATASIZE PUSH1 0x0 DUP1 RETURNDATACOPY RETURNDATASIZE PUSH1 0x0 REVERT JUMPDEST POP DUP5 PUSH1 0x1 PUSH1 0x1 PUSH1 0xA0 SHL SUB AND PUSH32 0x7084F5476618D8E60B11EF0D7D3F06914655ADB8793E28FF7F018D4C76D505D5 DUP6 PUSH1 0x40 MLOAD PUSH2 0xA01 SWAP2 DUP2 MSTORE PUSH1 0x20 ADD SWAP1 JUMP JUMPDEST PUSH1 0x40 MLOAD DUP1 SWAP2 SUB SWAP1 LOG2 POP POP POP POP POP POP JUMP JUMPDEST PUSH1 0x5 SLOAD TIMESTAMP GT PUSH2 0xA59 JUMPI PUSH1 0x40 MLOAD PUSH3 0x461BCD PUSH1 0xE5 SHL DUP2 MSTORE PUSH1 0x20 PUSH1 0x4 DUP3 ADD MSTORE PUSH1 0x14 PUSH1 0x24 DUP3 ADD MSTORE PUSH20 0x576520617265206E6F74206C6976652079657421 PUSH1 0x60 SHL PUSH1 0x44 DUP3 ADD MSTORE PUSH1 0x64 ADD PUSH2 0x973 JUMP JUMPDEST PUSH9 0x1158E460913D00000 CALLVALUE LT ISZERO PUSH2 0xAB2 JUMPI PUSH1 0x40 MLOAD PUSH3 0x461BCD PUSH1 0xE5 SHL DUP2 MSTORE PUSH1 0x20 PUSH1 0x4 DUP3 ADD MSTORE PUSH1 0x19 PUSH1 0x24 DUP3 ADD MSTORE PUSH32 0x4D696E696D756D20696E766573746D656E7420697320302E3100000000000000 PUSH1 0x44 DUP3 ADD MSTORE PUSH1 0x64 ADD PUSH2 0x973 JUMP JUMPDEST PUSH10 0xA968163F0A57B400000 CALLVALUE GT ISZERO PUSH2 0xB1F JUMPI PUSH1 0x40 MLOAD PUSH3 0x461BCD PUSH1 0xE5 SHL DUP2 MSTORE PUSH1 0x20 PUSH1 0x4 DUP3 ADD MSTORE PUSH1 0x2A PUSH1 0x24 DUP3 ADD MSTORE PUSH32 0x596F752063616E206E6F7420696E76657374206D6F7265207468616E20313030 PUSH1 0x44 DUP3 ADD MSTORE PUSH10 0x3030206174206F6E6365 PUSH1 0xB0 SHL PUSH1 0x64 DUP3 ADD MSTORE PUSH1 0x84 ADD PUSH2 0x973 JUMP JUMPDEST PUSH1 0x6 DUP2 PUSH1 0xFF AND LT PUSH2 0xB61 JUMPI PUSH1 0x40 MLOAD PUSH3 0x461BCD PUSH1 0xE5 SHL DUP2 MSTORE PUSH1 0x20 PUSH1 0x4 DUP3 ADD MSTORE PUSH1 0xC PUSH1 0x24 DUP3 ADD MSTORE PUSH12 0x24B73B30B634B210383630B7 PUSH1 0xA1 SHL PUSH1 0x44 DUP3 ADD MSTORE PUSH1 0x64 ADD PUSH2 0x973 JUMP JUMPDEST CALLER PUSH1 0x0 SWAP1 DUP2 MSTORE PUSH1 0x4 PUSH1 0x20 MSTORE PUSH1 0x40 DUP2 KECCAK256 SWAP1 PUSH2 0xB82 PUSH2 0x3E8 PUSH2 0x703 CALLVALUE PUSH1 0x96 PUSH2 0x13FF JUMP JUMPDEST PUSH1 0x6 SLOAD PUSH1 0x40 MLOAD SWAP2 SWAP3 POP PUSH1 0x1 PUSH1 0x1 PUSH1 0xA0 SHL SUB AND SWAP1 DUP3 ISZERO PUSH2 0x8FC MUL SWAP1 DUP4 SWAP1 PUSH1 0x0 DUP2 DUP2 DUP2 DUP6 DUP9 DUP9 CALL SWAP4 POP POP POP POP ISZERO DUP1 ISZERO PUSH2 0xBBD JUMPI RETURNDATASIZE PUSH1 0x0 DUP1 RETURNDATACOPY RETURNDATASIZE PUSH1 0x0 REVERT JUMPDEST POP PUSH1 0x2 DUP3 ADD SLOAD PUSH1 0x1 PUSH1 0x1 PUSH1 0xA0 SHL SUB AND PUSH2 0xD02 JUMPI PUSH1 0x1 PUSH1 0x1 PUSH1 0xA0 SHL SUB DUP5 AND PUSH1 0x0 SWAP1 DUP2 MSTORE PUSH1 0x4 PUSH1 0x20 MSTORE PUSH1 0x40 SWAP1 KECCAK256 SLOAD ISZERO DUP1 ISZERO SWAP1 PUSH2 0xC00 JUMPI POP PUSH1 0x1 PUSH1 0x1 PUSH1 0xA0 SHL SUB DUP5 AND CALLER EQ ISZERO JUMPDEST ISZERO PUSH2 0xC23 JUMPI PUSH1 0x2 DUP3 ADD DUP1 SLOAD PUSH1 0x1 PUSH1 0x1 PUSH1 0xA0 SHL SUB NOT AND PUSH1 0x1 PUSH1 0x1 PUSH1 0xA0 SHL SUB DUP7 AND OR SWAP1 SSTORE JUMPDEST PUSH1 0x2 DUP3 ADD SLOAD PUSH1 0x1 PUSH1 0x1 PUSH1 0xA0 SHL SUB AND PUSH1 0x0 JUMPDEST PUSH1 0x3 DUP2 LT ISZERO PUSH2 0xCFF JUMPI PUSH1 0x1 PUSH1 0x1 PUSH1 0xA0 SHL SUB DUP3 AND ISZERO PUSH2 0xCE8 JUMPI PUSH2 0xC92 PUSH1 0x1 PUSH1 0x4 PUSH1 0x0 DUP6 PUSH1 0x1 PUSH1 0x1 PUSH1 0xA0 SHL SUB AND PUSH1 0x1 PUSH1 0x1 PUSH1 0xA0 SHL SUB AND DUP2 MSTORE PUSH1 0x20 ADD SWAP1 DUP2 MSTORE PUSH1 0x20 ADD PUSH1 0x0 KECCAK256 PUSH1 0x3 ADD DUP4 PUSH1 0x3 DUP2 LT PUSH2 0xC8A JUMPI PUSH2 0xC8A PUSH2 0x15C7 JUMP JUMPDEST ADD SLOAD SWAP1 PUSH2 0x142A JUMP JUMPDEST PUSH1 0x1 PUSH1 0x1 PUSH1 0xA0 SHL SUB DUP4 AND PUSH1 0x0 SWAP1 DUP2 MSTORE PUSH1 0x4 PUSH1 0x20 MSTORE PUSH1 0x40 SWAP1 KECCAK256 PUSH1 0x3 SWAP1 DUP2 ADD SWAP1 DUP4 SWAP1 DUP2 LT PUSH2 0xCC0 JUMPI PUSH2 0xCC0 PUSH2 0x15C7 JUMP JUMPDEST ADD SSTORE PUSH1 0x1 PUSH1 0x1 PUSH1 0xA0 SHL SUB SWAP2 DUP3 AND PUSH1 0x0 SWAP1 DUP2 MSTORE PUSH1 0x4 PUSH1 0x20 MSTORE PUSH1 0x40 SWAP1 KECCAK256 PUSH1 0x2 ADD SLOAD SWAP1 SWAP2 AND SWAP1 PUSH2 0xCED JUMP JUMPDEST PUSH2 0xCFF JUMP JUMPDEST DUP1 PUSH2 0xCF7 DUP2 PUSH2 0x1596 JUMP JUMPDEST SWAP2 POP POP PUSH2 0xC34 JUMP JUMPDEST POP POP JUMPDEST PUSH1 0x2 DUP3 ADD SLOAD PUSH1 0x1 PUSH1 0x1 PUSH1 0xA0 SHL SUB AND ISZERO PUSH2 0xE65 JUMPI PUSH1 0x2 DUP3 ADD SLOAD PUSH1 0x1 PUSH1 0x1 PUSH1 0xA0 SHL SUB AND PUSH1 0x0 JUMPDEST PUSH1 0x3 DUP2 LT ISZERO PUSH2 0xE62 JUMPI PUSH1 0x1 PUSH1 0x1 PUSH1 0xA0 SHL SUB DUP3 AND ISZERO PUSH2 0xE4B JUMPI PUSH1 0x0 PUSH2 0xD76 PUSH2 0x3E8 PUSH2 0x703 PUSH1 0x0 DUP6 DUP2 SLOAD DUP2 LT PUSH2 0xD5C JUMPI PUSH2 0xD5C PUSH2 0x15C7 JUMP JUMPDEST SWAP1 PUSH1 0x0 MSTORE PUSH1 0x20 PUSH1 0x0 KECCAK256 ADD SLOAD CALLVALUE PUSH2 0x13FF SWAP1 SWAP2 SWAP1 PUSH4 0xFFFFFFFF AND JUMP JUMPDEST PUSH1 0x1 PUSH1 0x1 PUSH1 0xA0 SHL SUB DUP5 AND PUSH1 0x0 SWAP1 DUP2 MSTORE PUSH1 0x4 PUSH1 0x20 MSTORE PUSH1 0x40 SWAP1 KECCAK256 PUSH1 0x6 ADD SLOAD SWAP1 SWAP2 POP PUSH2 0xD9F SWAP1 DUP3 PUSH2 0x142A JUMP JUMPDEST PUSH1 0x1 PUSH1 0x1 PUSH1 0xA0 SHL SUB DUP5 AND PUSH1 0x0 SWAP1 DUP2 MSTORE PUSH1 0x4 PUSH1 0x20 MSTORE PUSH1 0x40 SWAP1 KECCAK256 PUSH1 0x6 DUP2 ADD SWAP2 SWAP1 SWAP2 SSTORE PUSH1 0x7 ADD SLOAD PUSH2 0xDCD SWAP1 DUP3 PUSH2 0x142A JUMP JUMPDEST PUSH1 0x1 PUSH1 0x1 PUSH1 0xA0 SHL SUB DUP5 AND PUSH1 0x0 DUP2 DUP2 MSTORE PUSH1 0x4 PUSH1 0x20 SWAP1 DUP2 MSTORE PUSH1 0x40 SWAP2 DUP3 SWAP1 KECCAK256 PUSH1 0x7 ADD SWAP4 SWAP1 SWAP4 SSTORE MLOAD DUP4 DUP2 MSTORE DUP5 SWAP3 CALLER SWAP3 SWAP2 PUSH32 0xD41F7E766EEBCC7FF42B11AC8691BDF864DB4AFC0C55E71D629D54EDCE460D98 SWAP2 ADD PUSH1 0x40 MLOAD DUP1 SWAP2 SUB SWAP1 LOG4 POP PUSH1 0x1 PUSH1 0x1 PUSH1 0xA0 SHL SUB SWAP2 DUP3 AND PUSH1 0x0 SWAP1 DUP2 MSTORE PUSH1 0x4 PUSH1 0x20 MSTORE PUSH1 0x40 SWAP1 KECCAK256 PUSH1 0x2 ADD SLOAD SWAP1 SWAP2 AND SWAP1 PUSH2 0xE50 JUMP JUMPDEST PUSH2 0xE62 JUMP JUMPDEST DUP1 PUSH2 0xE5A DUP2 PUSH2 0x1596 JUMP JUMPDEST SWAP2 POP POP PUSH2 0xD26 JUMP JUMPDEST POP POP JUMPDEST DUP2 SLOAD PUSH2 0xEA5 JUMPI TIMESTAMP PUSH1 0x1 DUP4 ADD SSTORE PUSH1 0x40 MLOAD CALLER DUP2 MSTORE PUSH32 0x9FD565CD14C3C391679EB0CAD12A14DCF7534E9D3462BCB9B67A098A9BBBC24A SWAP1 PUSH1 0x20 ADD PUSH1 0x40 MLOAD DUP1 SWAP2 SUB SWAP1 LOG1 JUMPDEST PUSH1 0x0 DUP1 PUSH1 0x0 PUSH2 0xEB4 DUP7 CALLVALUE PUSH2 0xFE6 JUMP JUMPDEST SWAP3 POP SWAP3 POP SWAP3 POP DUP5 PUSH1 0x0 ADD PUSH1 0x40 MLOAD DUP1 PUSH1 0xC0 ADD PUSH1 0x40 MSTORE DUP1 DUP9 PUSH1 0xFF AND DUP2 MSTORE PUSH1 0x20 ADD DUP6 DUP2 MSTORE PUSH1 0x20 ADD CALLVALUE DUP2 MSTORE PUSH1 0x20 ADD DUP5 DUP2 MSTORE PUSH1 0x20 ADD TIMESTAMP DUP2 MSTORE PUSH1 0x20 ADD DUP4 DUP2 MSTORE POP SWAP1 DUP1 PUSH1 0x1 DUP2 SLOAD ADD DUP1 DUP3 SSTORE DUP1 SWAP2 POP POP PUSH1 0x1 SWAP1 SUB SWAP1 PUSH1 0x0 MSTORE PUSH1 0x20 PUSH1 0x0 KECCAK256 SWAP1 PUSH1 0x6 MUL ADD PUSH1 0x0 SWAP1 SWAP2 SWAP1 SWAP2 SWAP1 SWAP2 POP PUSH1 0x0 DUP3 ADD MLOAD DUP2 PUSH1 0x0 ADD PUSH1 0x0 PUSH2 0x100 EXP DUP2 SLOAD DUP2 PUSH1 0xFF MUL NOT AND SWAP1 DUP4 PUSH1 0xFF AND MUL OR SWAP1 SSTORE POP PUSH1 0x20 DUP3 ADD MLOAD DUP2 PUSH1 0x1 ADD SSTORE PUSH1 0x40 DUP3 ADD MLOAD DUP2 PUSH1 0x2 ADD SSTORE PUSH1 0x60 DUP3 ADD MLOAD DUP2 PUSH1 0x3 ADD SSTORE PUSH1 0x80 DUP3 ADD MLOAD DUP2 PUSH1 0x4 ADD SSTORE PUSH1 0xA0 DUP3 ADD MLOAD DUP2 PUSH1 0x5 ADD SSTORE POP POP PUSH2 0xF81 CALLVALUE PUSH1 0x1 SLOAD PUSH2 0x142A SWAP1 SWAP2 SWAP1 PUSH4 0xFFFFFFFF AND JUMP JUMPDEST PUSH1 0x1 SSTORE PUSH1 0x40 DUP1 MLOAD PUSH1 0xFF DUP9 AND DUP2 MSTORE PUSH1 0x20 DUP2 ADD DUP6 SWAP1 MSTORE CALLVALUE DUP2 DUP4 ADD MSTORE PUSH1 0x60 DUP2 ADD DUP5 SWAP1 MSTORE TIMESTAMP PUSH1 0x80 DUP3 ADD MSTORE PUSH1 0xA0 DUP2 ADD DUP4 SWAP1 MSTORE SWAP1 MLOAD CALLER SWAP2 PUSH32 0x84E02DAA69BDB087C9FE8D3041ABCA495512CB14E723070F6D1D4EFFACE82E5D SWAP2 SWAP1 DUP2 SWAP1 SUB PUSH1 0xC0 ADD SWAP1 LOG2 POP POP POP POP POP POP POP JUMP JUMPDEST PUSH1 0x0 DUP1 PUSH1 0x0 PUSH2 0xFF4 DUP6 PUSH2 0x11DD JUMP JUMPDEST SWAP3 POP PUSH1 0x3 DUP6 PUSH1 0xFF AND LT ISZERO PUSH2 0x1049 JUMPI PUSH2 0x1042 PUSH1 0x3 DUP7 PUSH1 0xFF AND DUP2 SLOAD DUP2 LT PUSH2 0x101B JUMPI PUSH2 0x101B PUSH2 0x15C7 JUMP JUMPDEST PUSH1 0x0 SWAP2 DUP3 MSTORE PUSH1 0x20 SWAP1 SWAP2 KECCAK256 PUSH1 0x2 SWAP1 SWAP2 MUL ADD SLOAD PUSH2 0x103C PUSH2 0x3E8 PUSH2 0x703 DUP9 DUP9 PUSH2 0x13FF JUMP JUMPDEST SWAP1 PUSH2 0x13FF JUMP JUMPDEST SWAP2 POP PUSH2 0x10BB JUMP JUMPDEST PUSH1 0x6 DUP6 PUSH1 0xFF AND LT ISZERO PUSH2 0x10BB JUMPI PUSH1 0x0 JUMPDEST PUSH1 0x3 DUP7 PUSH1 0xFF AND DUP2 SLOAD DUP2 LT PUSH2 0x106E JUMPI PUSH2 0x106E PUSH2 0x15C7 JUMP JUMPDEST SWAP1 PUSH1 0x0 MSTORE PUSH1 0x20 PUSH1 0x0 KECCAK256 SWAP1 PUSH1 0x2 MUL ADD PUSH1 0x0 ADD SLOAD DUP2 LT ISZERO PUSH2 0x10B9 JUMPI PUSH2 0x10A5 PUSH2 0x109E PUSH2 0x3E8 PUSH2 0x703 DUP8 PUSH2 0x103C DUP11 DUP10 PUSH2 0x142A JUMP JUMPDEST DUP5 SWAP1 PUSH2 0x142A JUMP JUMPDEST SWAP3 POP DUP1 PUSH2 0x10B1 DUP2 PUSH2 0x1596 JUMP JUMPDEST SWAP2 POP POP PUSH2 0x1058 JUMP JUMPDEST POP JUMPDEST PUSH2 0x10F9 PUSH2 0x10F2 PUSH3 0x15180 PUSH1 0x3 DUP9 PUSH1 0xFF AND DUP2 SLOAD DUP2 LT PUSH2 0x10DB JUMPI PUSH2 0x10DB PUSH2 0x15C7 JUMP JUMPDEST PUSH1 0x0 SWAP2 DUP3 MSTORE PUSH1 0x20 SWAP1 SWAP2 KECCAK256 PUSH1 0x2 SWAP1 SWAP2 MUL ADD SLOAD SWAP1 PUSH2 0x13FF JUMP JUMPDEST TIMESTAMP SWAP1 PUSH2 0x142A JUMP JUMPDEST SWAP1 POP SWAP3 POP SWAP3 POP SWAP3 JUMP JUMPDEST PUSH1 0x0 DUP2 DUP2 SLOAD DUP2 LT PUSH2 0x1112 JUMPI PUSH1 0x0 DUP1 REVERT JUMPDEST PUSH1 0x0 SWAP2 DUP3 MSTORE PUSH1 0x20 SWAP1 SWAP2 KECCAK256 ADD SLOAD SWAP1 POP DUP2 JUMP JUMPDEST PUSH1 0x1 PUSH1 0x1 PUSH1 0xA0 SHL SUB DUP2 AND PUSH1 0x0 SWAP1 DUP2 MSTORE PUSH1 0x4 PUSH1 0x20 MSTORE PUSH1 0x40 DUP2 KECCAK256 PUSH1 0x6 DUP2 ADD SLOAD PUSH1 0x7 SWAP1 SWAP2 ADD SLOAD PUSH2 0x8BD SWAP2 PUSH2 0x141E JUMP JUMPDEST PUSH1 0x0 DUP1 JUMPDEST PUSH1 0x1 PUSH1 0x1 PUSH1 0xA0 SHL SUB DUP4 AND PUSH1 0x0 SWAP1 DUP2 MSTORE PUSH1 0x4 PUSH1 0x20 MSTORE PUSH1 0x40 SWAP1 KECCAK256 SLOAD DUP2 LT ISZERO PUSH2 0x11D7 JUMPI PUSH1 0x1 PUSH1 0x1 PUSH1 0xA0 SHL SUB DUP4 AND PUSH1 0x0 SWAP1 DUP2 MSTORE PUSH1 0x4 PUSH1 0x20 MSTORE PUSH1 0x40 SWAP1 KECCAK256 DUP1 SLOAD PUSH2 0x11C3 SWAP2 SWAP1 DUP4 SWAP1 DUP2 LT PUSH2 0x11A2 JUMPI PUSH2 0x11A2 PUSH2 0x15C7 JUMP JUMPDEST SWAP1 PUSH1 0x0 MSTORE PUSH1 0x20 PUSH1 0x0 KECCAK256 SWAP1 PUSH1 0x6 MUL ADD PUSH1 0x2 ADD SLOAD DUP4 PUSH2 0x142A SWAP1 SWAP2 SWAP1 PUSH4 0xFFFFFFFF AND JUMP JUMPDEST SWAP2 POP DUP1 PUSH2 0x11CF DUP2 PUSH2 0x1596 JUMP JUMPDEST SWAP2 POP POP PUSH2 0x1153 JUMP JUMPDEST POP SWAP2 SWAP1 POP JUMP JUMPDEST PUSH1 0x0 PUSH1 0x5 SLOAD TIMESTAMP GT ISZERO PUSH2 0x1249 JUMPI PUSH2 0x8BD PUSH2 0x1213 PUSH3 0x15180 PUSH2 0x703 PUSH2 0x120B PUSH1 0x5 SLOAD TIMESTAMP PUSH2 0x141E SWAP1 SWAP2 SWAP1 PUSH4 0xFFFFFFFF AND JUMP JUMPDEST PUSH1 0x5 SWAP1 PUSH2 0x13FF JUMP JUMPDEST PUSH1 0x3 DUP5 PUSH1 0xFF AND DUP2 SLOAD DUP2 LT PUSH2 0x1229 JUMPI PUSH2 0x1229 PUSH2 0x15C7 JUMP JUMPDEST SWAP1 PUSH1 0x0 MSTORE PUSH1 0x20 PUSH1 0x0 KECCAK256 SWAP1 PUSH1 0x2 MUL ADD PUSH1 0x1 ADD SLOAD PUSH2 0x142A SWAP1 SWAP2 SWAP1 PUSH4 0xFFFFFFFF AND JUMP JUMPDEST PUSH1 0x3 DUP3 PUSH1 0xFF AND DUP2 SLOAD DUP2 LT PUSH2 0x125F JUMPI PUSH2 0x125F PUSH2 0x15C7 JUMP JUMPDEST SWAP1 PUSH1 0x0 MSTORE PUSH1 0x20 PUSH1 0x0 KECCAK256 SWAP1 PUSH1 0x2 MUL ADD PUSH1 0x1 ADD SLOAD SWAP1 POP SWAP2 SWAP1 POP JUMP JUMPDEST SWAP2 SWAP1 POP JUMP JUMPDEST PUSH1 0x0 DUP1 PUSH1 0x3 DUP4 PUSH1 0xFF AND DUP2 SLOAD DUP2 LT PUSH2 0x1296 JUMPI PUSH2 0x1296 PUSH2 0x15C7 JUMP JUMPDEST SWAP1 PUSH1 0x0 MSTORE PUSH1 0x20 PUSH1 0x0 KECCAK256 SWAP1 PUSH1 0x2 MUL ADD PUSH1 0x0 ADD SLOAD SWAP2 POP PUSH1 0x3 DUP4 PUSH1 0xFF AND DUP2 SLOAD DUP2 LT PUSH2 0x12C0 JUMPI PUSH2 0x12C0 PUSH2 0x15C7 JUMP JUMPDEST SWAP1 PUSH1 0x0 MSTORE PUSH1 0x20 PUSH1 0x0 KECCAK256 SWAP1 PUSH1 0x2 MUL ADD PUSH1 0x1 ADD SLOAD SWAP1 POP SWAP2 POP SWAP2 JUMP JUMPDEST PUSH1 0x1 PUSH1 0x1 PUSH1 0xA0 SHL SUB DUP3 AND PUSH1 0x0 SWAP1 DUP2 MSTORE PUSH1 0x4 PUSH1 0x20 MSTORE PUSH1 0x40 DUP2 KECCAK256 DUP1 SLOAD DUP3 SWAP2 DUP3 SWAP2 DUP3 SWAP2 DUP3 SWAP2 DUP3 SWAP2 SWAP1 DUP2 SWAP1 DUP10 SWAP1 DUP2 LT PUSH2 0x1310 JUMPI PUSH2 0x1310 PUSH2 0x15C7 JUMP JUMPDEST PUSH1 0x0 SWAP2 DUP3 MSTORE PUSH1 0x20 SWAP1 SWAP2 KECCAK256 PUSH1 0x6 SWAP1 SWAP2 MUL ADD SLOAD DUP2 SLOAD PUSH1 0xFF SWAP1 SWAP2 AND SWAP8 POP DUP2 SWAP1 DUP10 SWAP1 DUP2 LT PUSH2 0x133C JUMPI PUSH2 0x133C PUSH2 0x15C7 JUMP JUMPDEST SWAP1 PUSH1 0x0 MSTORE PUSH1 0x20 PUSH1 0x0 KECCAK256 SWAP1 PUSH1 0x6 MUL ADD PUSH1 0x1 ADD SLOAD SWAP6 POP DUP1 PUSH1 0x0 ADD DUP9 DUP2 SLOAD DUP2 LT PUSH2 0x1365 JUMPI PUSH2 0x1365 PUSH2 0x15C7 JUMP JUMPDEST SWAP1 PUSH1 0x0 MSTORE PUSH1 0x20 PUSH1 0x0 KECCAK256 SWAP1 PUSH1 0x6 MUL ADD PUSH1 0x2 ADD SLOAD SWAP5 POP DUP1 PUSH1 0x0 ADD DUP9 DUP2 SLOAD DUP2 LT PUSH2 0x138E JUMPI PUSH2 0x138E PUSH2 0x15C7 JUMP JUMPDEST SWAP1 PUSH1 0x0 MSTORE PUSH1 0x20 PUSH1 0x0 KECCAK256 SWAP1 PUSH1 0x6 MUL ADD PUSH1 0x3 ADD SLOAD SWAP4 POP DUP1 PUSH1 0x0 ADD DUP9 DUP2 SLOAD DUP2 LT PUSH2 0x13B7 JUMPI PUSH2 0x13B7 PUSH2 0x15C7 JUMP JUMPDEST SWAP1 PUSH1 0x0 MSTORE PUSH1 0x20 PUSH1 0x0 KECCAK256 SWAP1 PUSH1 0x6 MUL ADD PUSH1 0x4 ADD SLOAD SWAP3 POP DUP1 PUSH1 0x0 ADD DUP9 DUP2 SLOAD DUP2 LT PUSH2 0x13E0 JUMPI PUSH2 0x13E0 PUSH2 0x15C7 JUMP JUMPDEST SWAP1 PUSH1 0x0 MSTORE PUSH1 0x20 PUSH1 0x0 KECCAK256 SWAP1 PUSH1 0x6 MUL ADD PUSH1 0x5 ADD SLOAD SWAP2 POP POP SWAP3 SWAP6 POP SWAP3 SWAP6 POP SWAP3 SWAP6 JUMP JUMPDEST PUSH1 0x0 PUSH2 0x140B DUP3 DUP5 PUSH2 0x1560 JUMP JUMPDEST SWAP4 SWAP3 POP POP POP JUMP JUMPDEST PUSH1 0x0 PUSH2 0x140B DUP3 DUP5 PUSH2 0x153E JUMP JUMPDEST PUSH1 0x0 PUSH2 0x140B DUP3 DUP5 PUSH2 0x157F JUMP JUMPDEST PUSH1 0x0 PUSH2 0x140B DUP3 DUP5 PUSH2 0x1526 JUMP JUMPDEST DUP1 CALLDATALOAD PUSH1 0x1 PUSH1 0x1 PUSH1 0xA0 SHL SUB DUP2 AND DUP2 EQ PUSH2 0x1278 JUMPI PUSH1 0x0 DUP1 REVERT JUMPDEST DUP1 CALLDATALOAD PUSH1 0xFF DUP2 AND DUP2 EQ PUSH2 0x1278 JUMPI PUSH1 0x0 DUP1 REVERT JUMPDEST PUSH1 0x0 PUSH1 0x20 DUP3 DUP5 SUB SLT ISZERO PUSH2 0x1470 JUMPI PUSH1 0x0 DUP1 REVERT JUMPDEST PUSH2 0x140B DUP3 PUSH2 0x1436 JUMP JUMPDEST PUSH1 0x0 DUP1 PUSH1 0x40 DUP4 DUP6 SUB SLT ISZERO PUSH2 0x148C JUMPI PUSH1 0x0 DUP1 REVERT JUMPDEST PUSH2 0x1495 DUP4 PUSH2 0x1436 JUMP JUMPDEST SWAP5 PUSH1 0x20 SWAP4 SWAP1 SWAP4 ADD CALLDATALOAD SWAP4 POP POP POP JUMP JUMPDEST PUSH1 0x0 DUP1 PUSH1 0x40 DUP4 DUP6 SUB SLT ISZERO PUSH2 0x14B6 JUMPI PUSH1 0x0 DUP1 REVERT JUMPDEST PUSH2 0x14BF DUP4 PUSH2 0x1436 JUMP JUMPDEST SWAP2 POP PUSH2 0x14CD PUSH1 0x20 DUP5 ADD PUSH2 0x144D JUMP JUMPDEST SWAP1 POP SWAP3 POP SWAP3 SWAP1 POP JUMP JUMPDEST PUSH1 0x0 PUSH1 0x20 DUP3 DUP5 SUB SLT ISZERO PUSH2 0x14E8 JUMPI PUSH1 0x0 DUP1 REVERT JUMPDEST POP CALLDATALOAD SWAP2 SWAP1 POP JUMP JUMPDEST PUSH1 0x0 PUSH1 0x20 DUP3 DUP5 SUB SLT ISZERO PUSH2 0x1501 JUMPI PUSH1 0x0 DUP1 REVERT JUMPDEST PUSH2 0x140B DUP3 PUSH2 0x144D JUMP JUMPDEST PUSH1 0x0 DUP1 PUSH1 0x40 DUP4 DUP6 SUB SLT ISZERO PUSH2 0x151D JUMPI PUSH1 0x0 DUP1 REVERT JUMPDEST PUSH2 0x1495 DUP4 PUSH2 0x144D JUMP JUMPDEST PUSH1 0x0 DUP3 NOT DUP3 GT ISZERO PUSH2 0x1539 JUMPI PUSH2 0x1539 PUSH2 0x15B1 JUMP JUMPDEST POP ADD SWAP1 JUMP JUMPDEST PUSH1 0x0 DUP3 PUSH2 0x155B JUMPI PUSH4 0x4E487B71 PUSH1 0xE0 SHL PUSH1 0x0 MSTORE PUSH1 0x12 PUSH1 0x4 MSTORE PUSH1 0x24 PUSH1 0x0 REVERT JUMPDEST POP DIV SWAP1 JUMP JUMPDEST PUSH1 0x0 DUP2 PUSH1 0x0 NOT DIV DUP4 GT DUP3 ISZERO ISZERO AND ISZERO PUSH2 0x157A JUMPI PUSH2 0x157A PUSH2 0x15B1 JUMP JUMPDEST POP MUL SWAP1 JUMP JUMPDEST PUSH1 0x0 DUP3 DUP3 LT ISZERO PUSH2 0x1591 JUMPI PUSH2 0x1591 PUSH2 0x15B1 JUMP JUMPDEST POP SUB SWAP1 JUMP JUMPDEST PUSH1 0x0 PUSH1 0x0 NOT DUP3 EQ ISZERO PUSH2 0x15AA JUMPI PUSH2 0x15AA PUSH2 0x15B1 JUMP JUMPDEST POP PUSH1 0x1 ADD SWAP1 JUMP JUMPDEST PUSH4 0x4E487B71 PUSH1 0xE0 SHL PUSH1 0x0 MSTORE PUSH1 0x11 PUSH1 0x4 MSTORE PUSH1 0x24 PUSH1 0x0 REVERT JUMPDEST PUSH4 0x4E487B71 PUSH1 0xE0 SHL PUSH1 0x0 MSTORE PUSH1 0x32 PUSH1 0x4 MSTORE PUSH1 0x24 PUSH1 0x0 REVERT INVALID LOG2 PUSH5 0x6970667358 0x22 SLT KECCAK256 PUSH27 0xDD3DA65562F295FF743860CB3CBDFCB61A303801D5354EEB7520F7 0xE2 LOG0 0x24 0x4E PUSH5 0x736F6C6343 STOP ADDMOD SMOD STOP CALLER "
		},
		"gasEstimates": {
			"creation": {
				"codeDepositCost": "1130200",
				"executionCost": "infinite",
				"totalCost": "infinite"
			},
			"external": {
				"DEV_FEE()": "230",
				"INVEST_MAX_AMOUNT()": "274",
				"INVEST_MIN_AMOUNT()": "272",
				"PERCENTS_DIVIDER()": "231",
				"PERCENT_STEP()": "274",
				"REFERRAL_PERCENTS(uint256)": "4653",
				"TIME_STEP()": "252",
				"WITHDRAW_FEE()": "295",
				"devWallet()": "2426",
				"getContractBalance()": "251",
				"getPercent(uint8)": "infinite",
				"getPlanInfo(uint8)": "9096",
				"getResult(uint8,uint256)": "infinite",
				"getUserAmountOfDeposits(address)": "2593",
				"getUserAvailable(address)": "infinite",
				"getUserCheckpoint(address)": "2598",
				"getUserDepositInfo(address,uint256)": "26624",
				"getUserDividends(address)": "infinite",
				"getUserDownlineCount(address)": "6899",
				"getUserReferralBonus(address)": "2642",
				"getUserReferralTotalBonus(address)": "2600",
				"getUserReferralWithdrawn(address)": "infinite",
				"getUserReferrer(address)": "2663",
				"getUserTotalDeposits(address)": "infinite",
				"invest(address,uint8)": "infinite",
				"startUNIX()": "2328",
				"totalRefBonus()": "2395",
				"totalStaked()": "2351",
				"withdraw()": "infinite"
			},
			"internal": {
				"isContract(address)": "infinite"
			}
		},
		"methodIdentifiers": {
			"DEV_FEE()": "436a88c1",
			"INVEST_MAX_AMOUNT()": "7d8cb7a2",
			"INVEST_MIN_AMOUNT()": "e262113e",
			"PERCENTS_DIVIDER()": "01c234a8",
			"PERCENT_STEP()": "57fc86b4",
			"REFERRAL_PERCENTS(uint256)": "600d20ce",
			"TIME_STEP()": "32bc298c",
			"WITHDRAW_FEE()": "9bff5ddb",
			"devWallet()": "8ea5220f",
			"getContractBalance()": "6f9fb98a",
			"getPercent(uint8)": "a51b9533",
			"getPlanInfo(uint8)": "aecaa634",
			"getResult(uint8,uint256)": "5936cf61",
			"getUserAmountOfDeposits(address)": "a8aeb6c2",
			"getUserAvailable(address)": "153ab9df",
			"getUserCheckpoint(address)": "d7ffca91",
			"getUserDepositInfo(address,uint256)": "c0806b03",
			"getUserDividends(address)": "040a772e",
			"getUserDownlineCount(address)": "03a93c0c",
			"getUserReferralBonus(address)": "e85abe09",
			"getUserReferralTotalBonus(address)": "48c37203",
			"getUserReferralWithdrawn(address)": "6bb18556",
			"getUserReferrer(address)": "36144c9a",
			"getUserTotalDeposits(address)": "7e3abeea",
			"invest(address,uint8)": "581c5ae6",
			"startUNIX()": "c2341238",
			"totalRefBonus()": "69b11dd5",
			"totalStaked()": "817b1cd2",
			"withdraw()": "3ccfd60b"
		}
	},
	"abi": [
		{
			"inputs": [
				{
					"internalType": "address payable",
					"name": "dWallet",
					"type": "address"
				},
				{
					"internalType": "uint256",
					"name": "startDate",
					"type": "uint256"
				}
			],
			"stateMutability": "nonpayable",
			"type": "constructor"
		},
		{
			"anonymous": false,
			"inputs": [
				{
					"indexed": true,
					"internalType": "address",
					"name": "user",
					"type": "address"
				},
				{
					"indexed": false,
					"internalType": "uint256",
					"name": "totalAmount",
					"type": "uint256"
				}
			],
			"name": "FeePayed",
			"type": "event"
		},
		{
			"anonymous": false,
			"inputs": [
				{
					"indexed": true,
					"internalType": "address",
					"name": "user",
					"type": "address"
				},
				{
					"indexed": false,
					"internalType": "uint8",
					"name": "plan",
					"type": "uint8"
				},
				{
					"indexed": false,
					"internalType": "uint256",
					"name": "percent",
					"type": "uint256"
				},
				{
					"indexed": false,
					"internalType": "uint256",
					"name": "amount",
					"type": "uint256"
				},
				{
					"indexed": false,
					"internalType": "uint256",
					"name": "profit",
					"type": "uint256"
				},
				{
					"indexed": false,
					"internalType": "uint256",
					"name": "start",
					"type": "uint256"
				},
				{
					"indexed": false,
					"internalType": "uint256",
					"name": "finish",
					"type": "uint256"
				}
			],
			"name": "NewDeposit",
			"type": "event"
		},
		{
			"anonymous": false,
			"inputs": [
				{
					"indexed": false,
					"internalType": "address",
					"name": "user",
					"type": "address"
				}
			],
			"name": "Newbie",
			"type": "event"
		},
		{
			"anonymous": false,
			"inputs": [
				{
					"indexed": true,
					"internalType": "address",
					"name": "referrer",
					"type": "address"
				},
				{
					"indexed": true,
					"internalType": "address",
					"name": "referral",
					"type": "address"
				},
				{
					"indexed": true,
					"internalType": "uint256",
					"name": "level",
					"type": "uint256"
				},
				{
					"indexed": false,
					"internalType": "uint256",
					"name": "amount",
					"type": "uint256"
				}
			],
			"name": "RefBonus",
			"type": "event"
		},
		{
			"anonymous": false,
			"inputs": [
				{
					"indexed": true,
					"internalType": "address",
					"name": "user",
					"type": "address"
				},
				{
					"indexed": false,
					"internalType": "uint256",
					"name": "amount",
					"type": "uint256"
				}
			],
			"name": "Withdrawn",
			"type": "event"
		},
		{
			"inputs": [],
			"name": "DEV_FEE",
			"outputs": [
				{
					"internalType": "uint256",
					"name": "",
					"type": "uint256"
				}
			],
			"stateMutability": "view",
			"type": "function"
		},
		{
			"inputs": [],
			"name": "INVEST_MAX_AMOUNT",
			"outputs": [
				{
					"internalType": "uint256",
					"name": "",
					"type": "uint256"
				}
			],
			"stateMutability": "view",
			"type": "function"
		},
		{
			"inputs": [],
			"name": "INVEST_MIN_AMOUNT",
			"outputs": [
				{
					"internalType": "uint256",
					"name": "",
					"type": "uint256"
				}
			],
			"stateMutability": "view",
			"type": "function"
		},
		{
			"inputs": [],
			"name": "PERCENTS_DIVIDER",
			"outputs": [
				{
					"internalType": "uint256",
					"name": "",
					"type": "uint256"
				}
			],
			"stateMutability": "view",
			"type": "function"
		},
		{
			"inputs": [],
			"name": "PERCENT_STEP",
			"outputs": [
				{
					"internalType": "uint256",
					"name": "",
					"type": "uint256"
				}
			],
			"stateMutability": "view",
			"type": "function"
		},
		{
			"inputs": [
				{
					"internalType": "uint256",
					"name": "",
					"type": "uint256"
				}
			],
			"name": "REFERRAL_PERCENTS",
			"outputs": [
				{
					"internalType": "uint256",
					"name": "",
					"type": "uint256"
				}
			],
			"stateMutability": "view",
			"type": "function"
		},
		{
			"inputs": [],
			"name": "TIME_STEP",
			"outputs": [
				{
					"internalType": "uint256",
					"name": "",
					"type": "uint256"
				}
			],
			"stateMutability": "view",
			"type": "function"
		},
		{
			"inputs": [],
			"name": "WITHDRAW_FEE",
			"outputs": [
				{
					"internalType": "uint256",
					"name": "",
					"type": "uint256"
				}
			],
			"stateMutability": "view",
			"type": "function"
		},
		{
			"inputs": [],
			"name": "devWallet",
			"outputs": [
				{
					"internalType": "address payable",
					"name": "",
					"type": "address"
				}
			],
			"stateMutability": "view",
			"type": "function"
		},
		{
			"inputs": [],
			"name": "getContractBalance",
			"outputs": [
				{
					"internalType": "uint256",
					"name": "",
					"type": "uint256"
				}
			],
			"stateMutability": "view",
			"type": "function"
		},
		{
			"inputs": [
				{
					"internalType": "uint8",
					"name": "plan",
					"type": "uint8"
				}
			],
			"name": "getPercent",
			"outputs": [
				{
					"internalType": "uint256",
					"name": "",
					"type": "uint256"
				}
			],
			"stateMutability": "view",
			"type": "function"
		},
		{
			"inputs": [
				{
					"internalType": "uint8",
					"name": "plan",
					"type": "uint8"
				}
			],
			"name": "getPlanInfo",
			"outputs": [
				{
					"internalType": "uint256",
					"name": "time",
					"type": "uint256"
				},
				{
					"internalType": "uint256",
					"name": "percent",
					"type": "uint256"
				}
			],
			"stateMutability": "view",
			"type": "function"
		},
		{
			"inputs": [
				{
					"internalType": "uint8",
					"name": "plan",
					"type": "uint8"
				},
				{
					"internalType": "uint256",
					"name": "deposit",
					"type": "uint256"
				}
			],
			"name": "getResult",
			"outputs": [
				{
					"internalType": "uint256",
					"name": "percent",
					"type": "uint256"
				},
				{
					"internalType": "uint256",
					"name": "profit",
					"type": "uint256"
				},
				{
					"internalType": "uint256",
					"name": "finish",
					"type": "uint256"
				}
			],
			"stateMutability": "view",
			"type": "function"
		},
		{
			"inputs": [
				{
					"internalType": "address",
					"name": "userAddress",
					"type": "address"
				}
			],
			"name": "getUserAmountOfDeposits",
			"outputs": [
				{
					"internalType": "uint256",
					"name": "",
					"type": "uint256"
				}
			],
			"stateMutability": "view",
			"type": "function"
		},
		{
			"inputs": [
				{
					"internalType": "address",
					"name": "userAddress",
					"type": "address"
				}
			],
			"name": "getUserAvailable",
			"outputs": [
				{
					"internalType": "uint256",
					"name": "",
					"type": "uint256"
				}
			],
			"stateMutability": "view",
			"type": "function"
		},
		{
			"inputs": [
				{
					"internalType": "address",
					"name": "userAddress",
					"type": "address"
				}
			],
			"name": "getUserCheckpoint",
			"outputs": [
				{
					"internalType": "uint256",
					"name": "",
					"type": "uint256"
				}
			],
			"stateMutability": "view",
			"type": "function"
		},
		{
			"inputs": [
				{
					"internalType": "address",
					"name": "userAddress",
					"type": "address"
				},
				{
					"internalType": "uint256",
					"name": "index",
					"type": "uint256"
				}
			],
			"name": "getUserDepositInfo",
			"outputs": [
				{
					"internalType": "uint8",
					"name": "plan",
					"type": "uint8"
				},
				{
					"internalType": "uint256",
					"name": "percent",
					"type": "uint256"
				},
				{
					"internalType": "uint256",
					"name": "amount",
					"type": "uint256"
				},
				{
					"internalType": "uint256",
					"name": "profit",
					"type": "uint256"
				},
				{
					"internalType": "uint256",
					"name": "start",
					"type": "uint256"
				},
				{
					"internalType": "uint256",
					"name": "finish",
					"type": "uint256"
				}
			],
			"stateMutability": "view",
			"type": "function"
		},
		{
			"inputs": [
				{
					"internalType": "address",
					"name": "userAddress",
					"type": "address"
				}
			],
			"name": "getUserDividends",
			"outputs": [
				{
					"internalType": "uint256",
					"name": "",
					"type": "uint256"
				}
			],
			"stateMutability": "view",
			"type": "function"
		},
		{
			"inputs": [
				{
					"internalType": "address",
					"name": "userAddress",
					"type": "address"
				}
			],
			"name": "getUserDownlineCount",
			"outputs": [
				{
					"internalType": "uint256",
					"name": "",
					"type": "uint256"
				},
				{
					"internalType": "uint256",
					"name": "",
					"type": "uint256"
				},
				{
					"internalType": "uint256",
					"name": "",
					"type": "uint256"
				}
			],
			"stateMutability": "view",
			"type": "function"
		},
		{
			"inputs": [
				{
					"internalType": "address",
					"name": "userAddress",
					"type": "address"
				}
			],
			"name": "getUserReferralBonus",
			"outputs": [
				{
					"internalType": "uint256",
					"name": "",
					"type": "uint256"
				}
			],
			"stateMutability": "view",
			"type": "function"
		},
		{
			"inputs": [
				{
					"internalType": "address",
					"name": "userAddress",
					"type": "address"
				}
			],
			"name": "getUserReferralTotalBonus",
			"outputs": [
				{
					"internalType": "uint256",
					"name": "",
					"type": "uint256"
				}
			],
			"stateMutability": "view",
			"type": "function"
		},
		{
			"inputs": [
				{
					"internalType": "address",
					"name": "userAddress",
					"type": "address"
				}
			],
			"name": "getUserReferralWithdrawn",
			"outputs": [
				{
					"internalType": "uint256",
					"name": "",
					"type": "uint256"
				}
			],
			"stateMutability": "view",
			"type": "function"
		},
		{
			"inputs": [
				{
					"internalType": "address",
					"name": "userAddress",
					"type": "address"
				}
			],
			"name": "getUserReferrer",
			"outputs": [
				{
					"internalType": "address",
					"name": "",
					"type": "address"
				}
			],
			"stateMutability": "view",
			"type": "function"
		},
		{
			"inputs": [
				{
					"internalType": "address",
					"name": "userAddress",
					"type": "address"
				}
			],
			"name": "getUserTotalDeposits",
			"outputs": [
				{
					"internalType": "uint256",
					"name": "amount",
					"type": "uint256"
				}
			],
			"stateMutability": "view",
			"type": "function"
		},
		{
			"inputs": [
				{
					"internalType": "address",
					"name": "referrer",
					"type": "address"
				},
				{
					"internalType": "uint8",
					"name": "plan",
					"type": "uint8"
				}
			],
			"name": "invest",
			"outputs": [],
			"stateMutability": "payable",
			"type": "function"
		},
		{
			"inputs": [],
			"name": "startUNIX",
			"outputs": [
				{
					"internalType": "uint256",
					"name": "",
					"type": "uint256"
				}
			],
			"stateMutability": "view",
			"type": "function"
		},
		{
			"inputs": [],
			"name": "totalRefBonus",
			"outputs": [
				{
					"internalType": "uint256",
					"name": "",
					"type": "uint256"
				}
			],
			"stateMutability": "view",
			"type": "function"
		},
		{
			"inputs": [],
			"name": "totalStaked",
			"outputs": [
				{
					"internalType": "uint256",
					"name": "",
					"type": "uint256"
				}
			],
			"stateMutability": "view",
			"type": "function"
		},
		{
			"inputs": [],
			"name": "withdraw",
			"outputs": [],
			"stateMutability": "payable",
			"type": "function"
		}
	]
}